:020000040000FA
:020000002E28A8
:040002000034003492
:020008001028BE
:10002000A000030EA1000B1D29280B110630810032
:10003000A7191E28051AA714851AA714A20B292888
:100040001030A2002714A50803192928A50B292878
:10005000A711210E8300A00E200E09008316860131
:100060003F3085008730810083128601A701A301FC
:10007000A401A5010130A6001030A20006308100C5
:10008000A0308B00AA3086006328271C4528271043
:1000900027195B28A30803196328A30B4528A3018C
:1000A000A718542896206328A7102715AA30860081
:1000B0001430A4004528A40B45282711A715783033
:1000C000A50096206328AA3086002608013A031965
:1000D00078282608023A03197F282608033A0319CC
:1000E00086282608043A03198D280130A6006528C1
:1000F000051C9428A93086002D30A3004528851CB6
:100100009428A63086001E30A3004528051D94289B
:100110009A3086002D30A3004528851D94286A302A
:1001200086001E30A300452896206528A60A2608CA
:0C013000053A031D08000130A60008007D
:02400E00503F21
:00000001FF
